{
    "_format": "hh-sol-artifact-1",
    "contractName": "Transactions",
    "sourceName": "contracts/Transactions.sol",
    "abi": [
        {
            "anonymous": false,
            "inputs": [
                {
                    "indexed": false,
                    "internalType": "address",
                    "name": "from",
                    "type": "address"
                },
                {
                    "indexed": false,
                    "internalType": "address",
                    "name": "reciever",
                    "type": "address"
                },
                {
                    "indexed": false,
                    "internalType": "uint256",
                    "name": "amount",
                    "type": "uint256"
                },
                {
                    "indexed": false,
                    "internalType": "string",
                    "name": "message",
                    "type": "string"
                },
                {
                    "indexed": false,
                    "internalType": "string",
                    "name": "keyword",
                    "type": "string"
                }
            ],
            "name": "Transfer",
            "type": "event"
        },
        {
            "inputs": [
                {
                    "internalType": "address payable",
                    "name": "reciever",
                    "type": "address"
                },
                {
                    "internalType": "uint256",
                    "name": "amount",
                    "type": "uint256"
                },
                {
                    "internalType": "string",
                    "name": "message",
                    "type": "string"
                },
                {
                    "internalType": "string",
                    "name": "keyword",
                    "type": "string"
                }
            ],
            "name": "addToBlockchain",
            "outputs": [],
            "stateMutability": "nonpayable",
            "type": "function"
        },
        {
            "inputs": [],
            "name": "getAllTransaction",
            "outputs": [
                {
                    "components": [
                        {
                            "internalType": "address",
                            "name": "from",
                            "type": "address"
                        },
                        {
                            "internalType": "address",
                            "name": "reciever",
                            "type": "address"
                        },
                        {
                            "internalType": "uint256",
                            "name": "amount",
                            "type": "uint256"
                        },
                        {
                            "internalType": "string",
                            "name": "message",
                            "type": "string"
                        },
                        {
                            "internalType": "string",
                            "name": "keyword",
                            "type": "string"
                        }
                    ],
                    "internalType": "struct Transactions.TransferStruct[]",
                    "name": "",
                    "type": "tuple[]"
                }
            ],
            "stateMutability": "view",
            "type": "function"
        },
        {
            "inputs": [],
            "name": "getTransactionCount",
            "outputs": [
                {
                    "internalType": "uint256",
                    "name": "",
                    "type": "uint256"
                }
            ],
            "stateMutability": "view",
            "type": "function"
        }
    ],
    "bytecode": "0x608060405234801561001057600080fd5b50610dcf806100206000396000f3fe608060405234801561001057600080fd5b50600436106100415760003560e01c80632e7700f014610046578063add6415d14610064578063cc2d7ead14610082575b600080fd5b61004e61009e565b60405161005b919061049b565b60405180910390f35b61006c6100a7565b60405161007991906106d5565b60405180910390f35b61009c600480360381019061009791906108aa565b6102e0565b005b60008054905090565b60606001805480602002602001604051908101604052809291908181526020016000905b828210156102d757838290600052602060002090600502016040518060a00160405290816000820160009054906101000a900473ffffffffffffffffffffffffffffffffffffffff1673ffffffffffffffffffffffffffffffffffffffff1673ffffffffffffffffffffffffffffffffffffffff1681526020016001820160009054906101000a900473ffffffffffffffffffffffffffffffffffffffff1673ffffffffffffffffffffffffffffffffffffffff1673ffffffffffffffffffffffffffffffffffffffff168152602001600282015481526020016003820180546101b490610978565b80601f01602080910402602001604051908101604052809291908181526020018280546101e090610978565b801561022d5780601f106102025761010080835404028352916020019161022d565b820191906000526020600020905b81548152906001019060200180831161021057829003601f168201915b5050505050815260200160048201805461024690610978565b80601f016020809104026020016040519081016040528092919081815260200182805461027290610978565b80156102bf5780601f10610294576101008083540402835291602001916102bf565b820191906000526020600020905b8154815290600101906020018083116102a257829003601f168201915b505050505081525050815260200190600101906100cb565b50505050905090565b60016000808282546102f291906109d8565b9250508190555060016040518060a001604052803373ffffffffffffffffffffffffffffffffffffffff1681526020018673ffffffffffffffffffffffffffffffffffffffff16815260200185815260200184815260200183815250908060018154018082558091505060019003906000526020600020906005020160009091909190915060008201518160000160006101000a81548173ffffffffffffffffffffffffffffffffffffffff021916908373ffffffffffffffffffffffffffffffffffffffff16021790555060208201518160010160006101000a81548173ffffffffffffffffffffffffffffffffffffffff021916908373ffffffffffffffffffffffffffffffffffffffff1602179055506040820151816002015560608201518160030190816104249190610bb8565b50608082015181600401908161043a9190610bb8565b5050507f5958983c36c78f71aaec2c8d1eb5f392fd57316d842a6aa664705e3e198b72533385858585604051610474959493929190610d38565b60405180910390a150505050565b6000819050919050565b61049581610482565b82525050565b60006020820190506104b0600083018461048c565b92915050565b600081519050919050565b600082825260208201905092915050565b6000819050602082019050919050565b600073ffffffffffffffffffffffffffffffffffffffff82169050919050565b600061050d826104e2565b9050919050565b61051d81610502565b82525050565b61052c81610482565b82525050565b600081519050919050565b600082825260208201905092915050565b60005b8381101561056c578082015181840152602081019050610551565b60008484015250505050565b6000601f19601f8301169050919050565b600061059482610532565b61059e818561053d565b93506105ae81856020860161054e565b6105b781610578565b840191505092915050565b600060a0830160008301516105da6000860182610514565b5060208301516105ed6020860182610514565b5060408301516106006040860182610523565b50606083015184820360608601526106188282610589565b915050608083015184820360808601526106328282610589565b9150508091505092915050565b600061064b83836105c2565b905092915050565b6000602082019050919050565b600061066b826104b6565b61067581856104c1565b935083602082028501610687856104d2565b8060005b858110156106c357848403895281516106a4858261063f565b94506106af83610653565b925060208a0199505060018101905061068b565b50829750879550505050505092915050565b600060208201905081810360008301526106ef8184610660565b905092915050565b6000604051905090565b600080fd5b600080fd5b6000610716826104e2565b9050919050565b6107268161070b565b811461073157600080fd5b50565b6000813590506107438161071d565b92915050565b61075281610482565b811461075d57600080fd5b50565b60008135905061076f81610749565b92915050565b600080fd5b600080fd5b7f4e487b7100000000000000000000000000000000000000000000000000000000600052604160045260246000fd5b6107b782610578565b810181811067ffffffffffffffff821117156107d6576107d561077f565b5b80604052505050565b60006107e96106f7565b90506107f582826107ae565b919050565b600067ffffffffffffffff8211156108155761081461077f565b5b61081e82610578565b9050602081019050919050565b82818337600083830152505050565b600061084d610848846107fa565b6107df565b9050828152602081018484840111156108695761086861077a565b5b61087484828561082b565b509392505050565b600082601f83011261089157610890610775565b5b81356108a184826020860161083a565b91505092915050565b600080600080608085870312156108c4576108c3610701565b5b60006108d287828801610734565b94505060206108e387828801610760565b935050604085013567ffffffffffffffff81111561090457610903610706565b5b6109108782880161087c565b925050606085013567ffffffffffffffff81111561093157610930610706565b5b61093d8782880161087c565b91505092959194509250565b7f4e487b7100000000000000000000000000000000000000000000000000000000600052602260045260246000fd5b6000600282049050600182168061099057607f821691505b6020821081036109a3576109a2610949565b5b50919050565b7f4e487b7100000000000000000000000000000000000000000000000000000000600052601160045260246000fd5b60006109e382610482565b91506109ee83610482565b9250828201905080821115610a0657610a056109a9565b5b92915050565b60008190508160005260206000209050919050565b60006020601f8301049050919050565b600082821b905092915050565b600060088302610a6e7fffffffffffffffffffffffffffffffffffffffffffffffffffffffffffffffff82610a31565b610a788683610a31565b95508019841693508086168417925050509392505050565b6000819050919050565b6000610ab5610ab0610aab84610482565b610a90565b610482565b9050919050565b6000819050919050565b610acf83610a9a565b610ae3610adb82610abc565b848454610a3e565b825550505050565b600090565b610af8610aeb565b610b03818484610ac6565b505050565b5b81811015610b2757610b1c600082610af0565b600181019050610b09565b5050565b601f821115610b6c57610b3d81610a0c565b610b4684610a21565b81016020851015610b55578190505b610b69610b6185610a21565b830182610b08565b50505b505050565b600082821c905092915050565b6000610b8f60001984600802610b71565b1980831691505092915050565b6000610ba88383610b7e565b9150826002028217905092915050565b610bc182610532565b67ffffffffffffffff811115610bda57610bd961077f565b5b610be48254610978565b610bef828285610b2b565b600060209050601f831160018114610c225760008415610c10578287015190505b610c1a8582610b9c565b865550610c82565b601f198416610c3086610a0c565b60005b82811015610c5857848901518255600182019150602085019450602081019050610c33565b86831015610c755784890151610c71601f891682610b7e565b8355505b6001600288020188555050505b505050505050565b610c9381610502565b82525050565b6000610cb4610caf610caa846104e2565b610a90565b6104e2565b9050919050565b6000610cc682610c99565b9050919050565b6000610cd882610cbb565b9050919050565b610ce881610ccd565b82525050565b600082825260208201905092915050565b6000610d0a82610532565b610d148185610cee565b9350610d2481856020860161054e565b610d2d81610578565b840191505092915050565b600060a082019050610d4d6000830188610c8a565b610d5a6020830187610cdf565b610d67604083018661048c565b8181036060830152610d798185610cff565b90508181036080830152610d8d8184610cff565b9050969550505050505056fea26469706673582212201043a303c48de53150b5b977652f8895cf33a4d8906ff3e4faff5a94c2e53bae64736f6c63430008120033",
    "linkReferences": {},
    "deployedLinkReferences": {}
}